:0400000051EF00F0CC
:10000800FACF34F0FBCF35F0E9CF36F053ED00F0FE
:10001800D8CF23F0E8CF24F0E0CF25F0FACF26F0B0
:10002800FBCF27F0E9CF28F0EACF29F0E1CF2AF07B
:10003800E2CF2BF0D9CF2CF0DACF2DF0F3CF2EF082
:10004800F4CF2FF0F6CF30F0F7CF31F0F8CF32F011
:10005800F5CF33F033C0F5FF32C0F8FF31C0F7FFFA
:1000680030C0F6FF2FC0F4FF2EC0F3FF2DC0DAFF1B
:100078002CC0D9FF2BC0E2FF2AC0E1FF29C0EAFF4C
:1000880028C0E9FF27C0FBFF26C0FAFF25C0E0FF14
:1000980024C0E8FF23C0D8FF1000C9EF01F0060014
:1000A800EACF37F0E1CF38F0E2CF39F0D9CF3AF0E4
:1000B800DACF3BF0F3CF3CF0F4CF3DF0F6CF3EF093
:1000C800F7CF3FF0F8CF40F0F5CF41F0A1A246D0EE
:1000D80004500310D8B442D00E50800AF36E810E3B
:1000E800F35CF40ED8B40D5CD8B038D03F0E1F6E58
:1000F800F00E206E44044510D8A405D08B968B8250
:100108008B908B9413D04450020A4510D8A405D084
:100118008B868B948B908B9209D04450030A4510A0
:10012800D8A407D08B968B848B928B90444A452A0F
:100138000FD04450040A4510D8A40AD08B948B924F
:100148008B808B96000E456E010E446E0D4A0E2A6A
:10015800A192B1801FC0B3FF20C0B2FF9EA046D0BD
:1001680004500310D8B442D01A50800AF36E810E9E
:10017800F35CF40ED8B4195CD8B038D03F0E216EB9
:10018800F00E226E48044910D8A405D08B9C8B9E93
:100198008B888B9A13D04850020A4910D8A405D0EE
:1001A8008B988B9A8B8E8B9C09D04850030A4910E8
:1001B800D8A407D08B988B9A8B8C8B9E484A492A57
:1001C8000FD04850040A4910D8A40AD08B8A8B9CB7
:1001D8008B9E8B98000E496E010E486E194A1A2A9A
:1001E8009E90CD8021C0CFFF22C0CEFFA1A251D0CA
:1001F8000E50800AF36E800EF35C3C0ED8B40D5C92
:10020800D8B047D047504610D8B443D04204431022
:10021800D8A408D08B808B928B948B968B888B9AE2
:100228008B9C1AD04250020A4310D8A409D08B9054
:100238008B928B848B968B988B9A8B9C8B8E0DD004
:100248004250030A4310D8A40BD08B908B928B9406
:100258008B868B988B9A8B8C8B9E424A432A13D021
:100268004250040A4310D8A40ED08B908B828B94F2
:100278008B968B988B8A8B9C8B9E000E436E010EFF
:10028800426E0F4A102AA192B18021C0B3FF22C04A
:10029800B2FF41C0F5FF40C0F8FF3FC0F7FF3EC0C6
:1002A800F6FF3DC0F4FF3CC0F3FF3BC0DAFF3AC0A5
:1002B800D9FF39C0E2FF38C0E1FF37C0EAFF36C0D6
:1002C800E9FF35C0FBFF34C0FAFF11007C0ED36E86
:1002D8004F0E9B6ED2EC01F0010E926E000E946EE2
:1002E800000E936E000E956E000E8B6E000E456E1E
:1002F800010E446E000E496E010E486E000E436EEC
:10030800010E426E000E4B6E010E4A6E000E046E18
:10031800000E036E000E476E010E466E000E1A6E3A
:10032800000E196E000E0E6E000E0D6E000E106E91
:10033800000E0F6EC294C296C298C29AC292CF0E95
:10034800C116C150F00B0C09C16EC08EC050C70B4E
:100358001009C06EC050F80B0209C06EC280D08E62
:10036800F28EF28CF298F296B190B18EB19AB19861
:10037800B192A192A082CD90CD8ECD9ACD98CD92FA
:100388009E909D80CD80B180FFD700EE01F0220EB7
:0E039800EE6AE806FDE100016AEF01F01200D6
:020000040020DA
:08000000FFFFFFFFFFFFFFFF00
:020000040030CA
:0E000000FF081F1EFF0185FF0FC00FE00F401D
:00000001FF
