:0400000051EF00F0CC
:10000800FACF13F0FBCF14F0E9CF15F053ED00F061
:10001800D8CF01F0E8CF02F0E0CF03F0FACF04F038
:10002800FBCF05F0E9CF06F0EACF07F0E1CF08F003
:10003800E2CF09F0D9CF0AF0DACF0BF0F3CF0CF00A
:10004800F4CF0DF0F6CF0EF0F7CF0FF0F8CF10F099
:10005800F5CF11F011C0F5FF10C0F8FF0FC0F7FF82
:100068000EC0F6FF0DC0F4FF0CC0F3FF0BC0DAFFA3
:100078000AC0D9FF09C0E2FF08C0E1FF07C0EAFFD4
:1000880006C0E9FF05C0FBFF04C0FAFF03C0E0FF9C
:1000980002C0E8FF01C0D8FF10000AEF01F0060017
:1000A800EACF16F0E1CF17F0E2CF18F0D9CF19F068
:1000B800DACF1AF0F3CF1BF0F4CF1CF0F6CF1DF017
:1000C800F7CF1EF0F8CF1FF0F5CF20F0F2A225D021
:1000D800F29282A002D0020E1BD082CF12F0020E42
:1000E80012161250010AD8A402D0040E11D082CFE1
:1000F80012F0040E12161250010AD8A402D0080EEB
:1001080007D082CF12F0080E12161250010A010E03
:100118008B6E000ED66E000ED76E9EA025D09E90D8
:1001280082CF12F0100E12161250010AD8A402D073
:10013800200E15D082CF12F0200E12161250010A8E
:10014800D8A402D0400E0BD082CF12F0400E121667
:100158001250010AD8A402D0800E01D0100E8B6E66
:10016800000ECE6E000ECF6E20C0F5FF1FC0F8FF48
:100178001EC0F7FF1DC0F6FF1CC0F4FF1BC0F3FF35
:100188001AC0DAFF19C0D9FF18C0E2FF17C0E1FF93
:1001980016C0EAFF15C0E9FF14C0FBFF13C0FAFF41
:1001A80011007C0ED36E4F0E9B6E010E926E000EE8
:1001B800946E080E936E000E956EC294C296C29805
:1001C800C29AC292CF0EC116C150F00B0E09C16E71
:1001D800C08EC050C70B1009C06EC050F80B020982
:1001E800C06EC280F28EF28CF298F28AF2929D80F2
:1001F8009E90000ED76E000ED66E000ECF6E000ECB
:10020800CF6E870ED56E410ECD6EFFD72A6A296A4A
:10021800286A276A420EF66E020EF76E000EF86E16
:1002280000EE21F010EE06F00900F5CFEEFFE550E4
:10023800E150FAE10001D5EF00F0010003000200EF
:020000040020DA
:08000000FFFFFFFFFFFFFFFF00
:020000040030CA
:0E000000FF081F1EFF8185FF0FC00FE00F409D
:00000001FF
