:0400000051EF00F0CC
:10000800FACF3AF0FBCF3BF0E9CF3CF053ED00F0EC
:10001800D8CF29F0E8CF2AF0E0CF2BF0FACF2CF098
:10002800FBCF2DF0E9CF2EF0EACF2FF0E1CF30F063
:10003800E2CF31F0D9CF32F0DACF33F0F3CF34F06A
:10004800F4CF35F0F6CF36F0F7CF37F0F8CF38F0F9
:10005800F5CF39F039C0F5FF38C0F8FF37C0F7FFE2
:1000680036C0F6FF35C0F4FF34C0F3FF33C0DAFF03
:1000780032C0D9FF31C0E2FF30C0E1FF2FC0EAFF34
:100088002EC0E9FF2DC0FBFF2CC0FAFF2BC0E0FFFC
:100098002AC0E8FF29C0D8FF1000C6EF01F006000B
:1000A800EACF3DF0E1CF3EF0E2CF3FF0D9CF40F0CC
:1000B800DACF41F0F3CF42F0F4CF43F0F6CF44F07B
:1000C800F7CF45F0F8CF46F0F5CF47F0A1A242D0E0
:1000D80049504810D8B43ED01250800AF36E830EAF
:1000E800F35CE80ED8B4115CD8B034D04A044B1095
:1000F800D8A405D08B968B828B908B9413D04A50C2
:10010800020A4B10D8A405D08B968B848B908B92C7
:1001180009D04A50030A4B10D8A407D08B868B9479
:100128008B928B904A4A4B2A0FD04A50040A4B10A4
:10013800D8A40AD08B948B928B808B96000E4B6E32
:10014800010E4A6E114A122AA192B18052C0B3FF21
:1001580053C0B2FF9EA042D049504810D8B43ED0F8
:100168002650800AF36E830EF35CE80ED8B4255C43
:10017800D8B034D04E044F10D8A405D08B9C8B9E99
:100188008B888B9A13D04E50020A4F10D8A405D0F2
:100198008B988B9A8B8E8B9C09D04E50030A4F10EC
:1001A800D8A407D08B988B9A8B8C8B9E4E4A4F2A5B
:1001B8000FD04E50040A4F10D8A40AD08B8A8B9CBB
:1001C8008B9E8B98000E4F6E010E4E6E254A262A86
:1001D8009E90CD8054C0CFFF55C0CEFFA1A24DD078
:1001E80014501310D8B449D02750155C285016580D
:1001F800D8B043D04C044D10D8A408D08B808B9233
:100208008B948B968B888B9A8B9C1AD04C50020AB5
:100218004D10D8A409D08B908B928B948B868B9899
:100228008B9A8B9C8B8E0DD04C50030A4D10D8A402
:100238000BD08B908B928B848B968B988B9A8B8C14
:100248008B9E4C4A4D2A13D04C50040A4D10D8A40A
:100258000ED08B908B828B948B968B988B8A8B9CF1
:100268008B9E000E4D6E010E4C6E154A162AA192F9
:10027800B18054C0B3FF55C0B2FF47C0F5FF46C0B8
:10028800F8FF45C0F7FF44C0F6FF43C0F4FF42C083
:10029800F3FF41C0DAFF40C0D9FF3FC0E2FF3EC0D4
:1002A800E1FF3DC0EAFF3CC0E9FF3BC0FBFF3AC0AD
:1002B800FAFF11007C0ED36E4F0E9B6ECFEC01F04F
:1002C800070E926E000E946E000E936E000E956EE1
:1002D800000E8B6E800E8C6EC294C296C298C29A23
:1002E800C292CF0EC116C150F00B0C09C16EC08E60
:1002F800C050C70B1009C06EC050F80B0209C06E81
:10030800C280D08EF28EF28CF298F296B190B18EB5
:10031800B19AB198B192A192A082CD90CD8ECD9A8A
:10032800CD98CD929E909D80000E4B6E010E4A6E28
:10033800000E4F6E010E4E6E000E4D6E010E4C6E8D
:10034800000E516E010E506E000E496E010E486E81
:10035800000E146E000E136E000E266E000E256E33
:10036800000E126E000E116E000E166E000E156E47
:10037800CD80B1803F0E526EF00E536E3F0E546E1C
:100388005568FFD700EE01F0280EEE6AE806FDE199
:0803980000015EEF01F012000C
:020000040020DA
:08000000FFFFFFFFFFFFFFFF00
:020000040030CA
:0E000000FF081F1EFF0185FF0FC00FE00F401D
:00000001FF
